:0200000260009C
:100000001D941A011D943B011D943B011D943B015D
:100010001D943B011D943B011D943B011D943B012C
:100020001D943B011D943B011D943B011D943B011C
:100030001D943B011D943B011D943B011D943B010C
:100040001D943B011D943B011D943B011D943B01FC
:100050001D943B011D943B011D943B011D943B01EC
:100060001D943B011D943B011D943B011D943B01DC
:100070001D943B011D943B011D943B011D943B01CC
:100080001D943B011D943B011D943B011D943B01BC
:100090001D943B011D943B011D943B011D943B01AC
:1000A0001D943B011D943B011D943B011D943B019C
:1000B0001D943B011D943B011D943B011D943B018C
:1000C0001D943B011D943B011D943B011D943B017C
:1000D0001D943B011D943B011D943B011D943B016C
:1000E0001D943B011D943B011D943B011D943B015C
:1000F0001D943B011D943B011D943B011D943B014C
:100100001D943B011D943B011D943B011D943B013B
:100110001D943B011D943B011D943B011D943B012B
:100120001D943B011D943B011D943B011D943B011B
:100130001D943B011D943B011D943B011D943B010B
:100140001D943B011D943B011D943B011D943B01FB
:100150001D943B011D943B011D943B011D943B01EB
:100160001D943B011D943B011D943B011D943B01DB
:100170001D943B011D943B011D943B011D943B01CB
:100180001D943B011D943B011D943B011D943B01BB
:100190001D943B011D943B011D943B011D943B01AB
:1001A0001D943B011D943B011D943B011D943B019B
:1001B0001D943B011D943B011D943B011D943B018B
:1001C0001D943B011D943B011D943B011D943B017B
:1001D0001D943B011D943B011D943B011D943B016B
:1001E0001D943B011D943B011D943B011D943B015B
:1001F0001D943B011D94760A1D942D0B1D948E06B3
:100200001D9483021D9494061D9407051D94770682
:100210001D9488061D9483061D94AB021D945F01F6
:100220001D94C1061D9486031D947B021D947D06BA
:100230001D94CA0211241FBECFEFCDBFDFE9DEBF80
:1002400003E00CBF11E2A0E0B0E2EEE2FCE106E068
:100250000BBF02C007900D92A237B107D9F72AE26F
:10026000A2E7B1E201C01D92AA34B207E1F71F94E0
:10027000F8011D94150E1D948A019BB78BBFFB01DD
:100280008091CA014093CA017DE970933400E895DA
:100290008093CA019BBF08952091CF0127FDFCCF19
:1002A0009BB78BBFFB018091CA0123E22093CA0157
:1002B0000A01E89511248093CA019BBF089590918B
:1002C000A10A95FFFCCF8093A00A90E080E00895FA
:1002D0000F931F93CF93C82F04E41AE2F8016281B1
:1002E0007381E82FE295EF70F0E0E85EFE4D8081CB
:1002F00090E01F94BA0DF80162817381CF70EC2FEA
:10030000F0E0E85EFE4D808190E0CF911F910F916B
:100310001D94BA0D1F920F920FB60F9211240BB6B7
:100320000F922F933F934F935F936F937F938F938E
:100330009F93AF93BF93EF93FF938CE790E21F944B
:10034000EA0D8091A0001F946801FF91EF91BF9189
:10035000AF919F918F917F916F915F914F913F915D
:100360002F910F900BBE0F900FBE0F901F901895FE
:10037000CF93DF93CDB7DEB72997CDBFDEBF88E03F
:10038000809385068093810660E185E090E01F946C
:100390004206E0E0F0E2848195818D839E83868130
:1003A00097818F8398878085898780819181A281B9
:1003B000B38189839A83AB83BC8360E185E090E05D
:1003C0001F944206BE016F5F7F4F80EA9AE01F9440
:1003D000540D89E090E28093462A9093472A29960B
:1003E000CDBFDEBFDF91CF9108950C94000008953A
:1003F00080E78093A106C0E1C093A50667E482EA86
:1004000090E01F94890D1F94EE0578941F94B80115
:1004100080E890E21F94EA0DC093A60680917800D0
:1004200085FF0AC08FE890E21F94EA0D8091780062
:10043000809378001F94F501809180068F7D8093D2
:10044000800688E1809391062FEF89EF90E021509C
:1004500080409040E1F700C000008091880685FF51
:100460003AC087EA90E21F94EA0D80E090E0DC0158
:10047000ABBFFC0187919691019641F187EB90E229
:100480001F94EA0D1F94F5018AE091E21F94EA0D92
:100490001F940C05C0E486E191E21F94EA0DC0931D
:1004A000A5068FEF93ED20E3815090402040E1F7C7
:1004B00000C00000C093A6068FEF93ED20E38150AB
:1004C00090402040E1F700C00000E5CF84ED90E2CD
:1004D0001F94EA0DD9CF8FEE90E2FACF0895E8ECA1
:1004E000F9E2108282E08483E4E3FAE2168617865A
:1004F000148615860895E8ECF9E283E0808382E0B3
:10050000848380E0089560917E2170917F21209105
:100510007A2130917B21462F4F7350E048575E4D32
:10052000E0917821F0917921809180219091812131
:1005300019951092422A1092432A81E00895109250
:1005400084211F946F021F949A061F94AC06809317
:10055000832181E00895CF93DF93CAE7D1E2288118
:10056000398140917E2150917F216091802170914D
:100570008121E0917621F091772188E891E2199527
:100580006881798188E891E21F946F0A81E0DF91A8
:10059000CF91089580917E2190917F21E8E8F1E24A
:1005A0009083818362E070E0CF011F946F0A81E045
:1005B0000895CF939091342A892F8076803209F064
:1005C00042C08091352A97FF14C0823051F08330A9
:1005D000A1F566E070E088EC99E21F946F0AC1E033
:1005E0001CC0E0918521F0918621309731F1CF91A7
:1005F0001994813029F0843001F51F946F02EFCFF8
:10060000C0918421CC2361F080E01F94D00681EC5E
:1006100096E08093402A9093412A8C2FCF910895A1
:1006200060E470E088E899E21F946F0A86E893E03E
:100630008093422A9093432AD2CF8FE08093C82997
:100640008AE08093CC29C0E0E8CF0F931F934091BC
:100650007E2150917F2160918021709181214427DA
:10066000552780918B29480F511D611D711D809167
:100670008A2990E0982F8827480F591F611D711D06
:1006800040937E2150937F2160938021709381213C
:1006900020918C2930E0322F222780918D2990E003
:1006A000B0E0A0E0820F931FA11DB11D8A019B0144
:1006B00000271127800F911FA21FB31F00917221E5
:1006C0001091732120917421309175218017910729
:1006D000A207B30750F088E08093C8298AE080938E
:1006E000CC2980E01F910F910895841B950BA60BD8
:1006F000B70B0196A11DB11D80937A2190937B21A8
:10070000A0937C21B0937D2181E0ECCFCF92DF924A
:10071000EF92FF921F93CF93DF9300D01F92CDB73C
:10072000DEB71F946F02109285211092862181E01E
:100730001F94D0068091882990918929982789272C
:100740009827811521E09207C9F58091832188239C
:1007500059F080918221882339F083E08093C82961
:1007600082E08093CC2910C08091782190917921EA
:10077000892B29F483E08093C8298AE0F2CF1F9463
:100780002503182F811102C010E00CC060E078E052
:1007900088E891E21F946F0A83E892E08093422AEE
:1007A0009093432A812F2496CDBFDEBFDF91CF9156
:1007B0001F91FF90EF90DF90CF900895811533E067
:1007C000930711F51F942503182F8823E9F28091D0
:1007D000762190917721892B69F28091832188235A
:1007E00061F080918221882341F02BE732E0209351
:1007F000852130938621182FD5CF8BEA92E0809304
:10080000852190938621CECF813023E0920709F095
:1008100092C01F942503182F882309F4B5CF809127
:10082000762190917721892B09F4A4CF80917A21A8
:1008300090917B21A0917C21B0917D21892B8A2BE5
:100840008B2BB9F580E098EFA0E0B0E080937A219F
:1008500090937B21A0937C21B0937D21E12C98E0A3
:10086000F92E40917E2150917F21609180217091DD
:100870008121E0917621F0917721970188E891E23A
:10088000199540917E2150917F2160918021709136
:100890008121E8E8F1E2C70188579E4DE817F90782
:1008A00079F540937E2150937F216093802170934E
:1008B000812180917A2190917B21A0917C21B0911E
:1008C0007D210097A105B10509F46CCFAC01BD01F4
:1008D000813038E09307A105B10520F040E058E0F1
:1008E00060E070E07A01841B950BA60BB70B809338
:1008F0007A2190937B21A0937C21B0937D21B1CF6D
:1009000021916A017B013FEFC31AD30AE30AF30A7C
:100910002F3F71F040937E2150937F21609380217F
:100920007093812185E08093C8298AEC92E067CF9B
:10093000B701A601B3CF811524E0920749F41F94B3
:10094000B306182F882309F41FCF109283212ACFD2
:10095000833034E0930729F481E08093842111E00F
:1009600021CF8330964009F00FCF80918A298823C8
:1009700031F18130A1F719821A821B821C82809189
:100980008B298C8380918C298B8389819A81AB817F
:10099000BC814091722150917321609174217091BA
:1009A000752184179507A607B70768F480937E2101
:1009B00090937F21A0938021B0938121D0CFE091AB
:1009C0008B29E13110F088E0D6CE8EEF8E0F843087
:1009D000D8F081E080938221F0E0EE0FFF1FE85D08
:1009E000FE4D0190F081E02D88E0A2E7B1E2019098
:1009F0000D928A95E1F710927E2110927F2110923C
:100A0000802110928121ABCF10928221E5CF80917D
:100A1000362A8F771D946C0A1D94120A8091CE2974
:100A200081111F946E021092CE2981E090E0809394
:100A3000CF299093D0290895089510923E2A1092BC
:100A40003F2A1092402A1092412A1092422A109274
:100A5000432A9091342A97FF08C020913A2A309176
:100A60003B2A232B11F480E00895892F8F7731F5ED
:100A70008091352A97FF6FC0863061F0883009F485
:100A800065C081111BC062E070E08FEC99E21F9499
:100A90006F0A2EC08091362A9091372A292F33274A
:100AA0002230310591F02330310521F160912A2067
:100AB00070E08AE290E22130310569F08091342AB9
:100AC0008F71813081F61D94D90260911A20709146
:100AD0001B2088E190E21F946F0A80913A2A90913E
:100AE0003B2A20913E2A30913F2A8217930748F1F2
:100AF00081E0089599278130910561F030F00297E7
:100B0000E9F660E182E690E208C064E070E08CE320
:100B100090E2E1CF65E083E790E2282FA2E4B0E223
:100B2000FC01819190E08D939D938E2F821B8617FF
:100B3000C0F36F5F660F6093402070E080E490E246
:100B4000CACF80933E2A90933F2AD2CF61E070E0D3
:100B50008EEC99E29CCF853089F0893009F0AECFD8
:100B60001F940E058091362A8093CE29882309F49C
:100B7000BFCF1F949F028111BBCFA0CF87E095E02C
:100B80008093402A9093412AB3CFCF93DF931F9253
:100B9000CDB7DEB78FB78983F89489810F90DF9145
:100BA000CF9108951F94C505A0E5B0E016969C91DD
:100BB0001697997F16969C931697E0E6F0E090E8DA
:100BC00095839BEB968316969C9116979460169648
:100BD0009C939081916090838FBF0895CF93DF9312
:100BE0001F921F92CDB7DEB78FEF80937000809376
:100BF00071008093720080937300809374008093DF
:100C000075008093760064E081E490E01F94890D84
:100C10006CE170E082E01F947F0D8A836DE170E0EB
:100C200082E01F947F0D898389819A81019621F446
:100C300080E493E289839A8399818A819093620008
:100C4000809363001F94C50590915000926090932B
:100C500050008FBF8091510081FFFCCF1F94D205BF
:100C600061E080E490E01F94890D1F94C505909188
:100C700050009E7F909350008FBF0F900F90DF9198
:100C8000CF9108951F93CF93DF93EC01162F1F94FC
:100C9000C505C059DF4F10956881612368838FBFF8
:100CA000DF91CF911F910895CF93C0E0863009F472
:100CB000C8E18091510081FD0EC01F94C50590913F
:100CC00050009260909350008FBF8091510081FF3F
:100CD000FCCF1F94D2056C2F636084E490E01F94D6
:100CE000890D60E490E080E0CF911D9442060F935F
:100CF00001E01F94FF070F910895FC01CB01BA0199
:100D0000AF011D94D907CB01BA01A9011D947D073C
:100D1000FC01CA01A901BF011D94E706BA01675889
:100D20007F4DA9011D94B10DBA016F52764DA901F5
:100D30001D94B10DA0E9B0E08C91E1EDF9E2808362
:100D400011968C911197818312968C9112978283C0
:100D500013968C91838308958091D001869581703C
:100D600091E0892708958091CF0187FDFCCF40E273
:100D700060E070E0CB011F943D011F94D40781E037
:100D80000895F8948AEA95E580934A2A90934B2A2D
:100D900060917900616089E790E01F94890DFFCF31
:100DA00008958091CF0187FDFCCF08951F93CF93C5
:100DB000DF93C0ECD1E01A858A8761E08BEC91E08B
:100DC0001F94890D1A87DF91CF911F910895CF92BB
:100DD000DF92EF92FF920F931F93CF93DF938C01DB
:100DE0007B016A011F94D106CCECD1E08881886038
:100DF0008883B801705FA601C7011F94B10D888177
:100E0000877F8883DF91CF911F910F91FF90EF90A3
:100E1000DF90CF9008951F94D1068091CF0181FF7C
:100E200008C086E38093CA0161E08BEC91E01D94D9
:100E3000890D0895CF93DF93C82FD62F1F94D10625
:100E4000ACECB1E08C9188608C93EC2FF0E0F05F1B
:100E5000D0838C91877F8C93DF91CF910895EF920F
:100E6000FF920F931F93CF93DF93182FF92EE62E47
:100E7000C0ECD1E00A851F940B071F94D1066E2D9C
:100E8000812F1F941A071A82F982188385E38A87B3
:100E900061E08BEC91E01F94890D0A87DF91CF917F
:100EA0001F910F91FF90EF9008950F931F93CF9391
:100EB0008C011F94D106C0E0F80161918F018C2F45
:100EC0001F941A07CF5FC032B9F7CF911F910F91CE
:100ED0000895CF93DF93C82F1F94D10680E2C89F57
:100EE000E0011124E0ECF1E01282D183C08385E3BC
:100EF00090E0DF91CF911D94D606CF92DF92EF92D2
:100F0000FF920F931F93CF93DF93EC017B018A0134
:100F10000115110549F4DF91CF911F910F91FF90B9
:100F2000EF90DF90CF900895CE018F719927892B94
:100F3000A9F40032110590F0C7011F945507CE01A6
:100F400025E0969587952A95E1F71F946907A09665
:100F500080E2E80EF11C00521109DACF6E01EFEFCA
:100F6000CE1ADE0AF70161917F01CE011F942F078F
:100F700001501109E601CCCFCF93DF93D82F1F94F6
:100F80000B071F94D106C0E06D2F8C2F1F941A07FA
:100F9000CF5FC032C9F7DF91CF9108951F94D1067A
:100FA00080E390E01D94D6068FEF1F94BC071D943C
:100FB000CE07CF92DF92EF92FF920F931F93CF93C2
:100FC000DF936B017C01EA0189011F94D1060C0FAC
:100FD0001D1FC017D10749F4DF91CF911F910F91C9
:100FE000FF90EF90DF90CF900895EBBEF6018791D0
:100FF00089938FEFC81AD80AE80AF80AEACF2F9225
:101000003F924F925F926F927F928F929F92AF9298
:10101000BF92CF92DF92EF92FF920F931F93CF93E5
:10102000DF9300D000D0CDB7DEB72B013C011A0111
:1010300079015C014B018824E89490F8E114F104F3
:10104000B1F42696CDBFDEBFDF91CF911F910F91F6
:10105000FF90EF90DF90CF90BF90AF909F908F90D8
:101060007F906F905F904F903F902F9008951F94C6
:10107000D106C501B401C12CDD24D39410E00023B6
:1010800009F459C08BBFFB012791369129833A831C
:101090002F3F3F4F09F054C09B01AC012E5F3F4FE3
:1010A0004F4F5F4F2B833C834D835E83E114F104EC
:1010B00039F19B01AC012F5F3F4F4F4F5F4F6415DC
:1010C00075058605970561F4A1E0EA1AF108290182
:1010D0003A01D101ED911D01E983E114F10481F0A0
:1010E000241535054605570559F44B805C806D8005
:1010F0007E80B1E0EB1AF108F10121911F012A83F2
:1011000049815A811F944C016B817C818D819E8124
:10111000F1E0CF1AD10809F0B2CF112399F01F9452
:10112000D10645E2C501B4011F943D0122E0920EB3
:10113000A11CB11C83CFAFEFBFEFA983BA83ACCFA3
:10114000102FAACF1F94D10644E2ECCF0F93E8EC06
:10115000F4E080818F7D808380818F7D8083E8E2D1
:10116000FAE202E0059310922A2A10922B2A00E25A
:10117000069300E40693E0E2FAE200E40693E4E377
:10118000FAE2148615861686178612861386109242
:101190001A2A10921B2A0F9108950F9385E090E070
:1011A00080931A2A90931B2AE9E2FAE204E005935D
:1011B000E1E2FAE204E005930F9108950F9383E0D2
:1011C00090E080931A2A90931B2A10922A2A109258
:1011D0002B2AE8E2FAE202E006930F910895E091EB
:1011E000402AF091412A309709F0199408950F93FD
:1011F000CF93DF9380911A2A90911B2A039739F499
:101200001F94EF08DF91CF910F911D94A608809154
:10121000162A9091172AC0913E2AD0913F2AC81BC6
:10122000D90BA1F52091182A3091192A820F931F0A
:101230008093182A9093192A20913A2A30913B2AB8
:101240008217930721F08091D529882371F084E0DB
:1012500090E080931A2A90931B2AE0E2FAE202E0DF
:101260000693DF91CF910F910895E091422AF0917A
:10127000432A309769F11995882351F11092162A63
:101280001092172AC0913E2AD0913F2AC034D1052E
:10129000F8F01092D529C0E4D0E0C0932A2AD09368
:1012A0002B2A8091162A9091172A20913C2A30915E
:1012B0003D2A280F391F20932C2A30932D2AC80F3E
:1012C000D91FC093162AD093172AE8E2FAE2C7CFB3
:1012D00081E08093D529E1CF0F93CF938091CC0407
:1012E000C0E080FF54C021E02093CC0480E29AE269
:1012F000FC0100E80693E8E2FAE200E80693209396
:10130000CA04FC0100E1069380911A2A90911B2ADD
:10131000009739F00397029710F41F94EF081F9479
:10132000A6088091222A9091232A0897D1F488E078
:10133000E6EDF9E2A4E3BAE201900D928A95E1F7B5
:101340008091C80480628093C8048091C804806240
:101350008093C8041F941D05C82F811104C01F94D9
:10136000CD08C1E014C08091342A87FF14C01092C8
:10137000182A1092192A1092162A1092172A82E01F
:1013800090E080931A2A90931B2A1F94F7088C2FC1
:10139000CF910F91089580913A2A90913B2A892B01
:1013A00019F41F94DE08F3CF1092182A1092192A0C
:1013B0001092162A1092172A81E090E080931A2A40
:1013C00090931B2AE0E2FAE202E0069300E2069321
:1013D000DECFCF93DF931F92CDB7DEB78FB7898370
:1013E000F8949981EAECF4E080E4808380E28083E1
:1013F000E1ECF4E0808181608083A9ECB4E08C9121
:1014000082608C93E8ECF4E08081806480838C912E
:1014100081608C938081806880839FBF0F90DF9173
:10142000CF9108951F93CF93DF931F92CDB7DEB76F
:101430001092600080E31F9454068091C004806481
:101440008093C00481E0809360008FB78983F89413
:1014500019811092212A1092292A6AE170E082E013
:101460001F947F0D8F3FA1F18093FA046BE170E030
:1014700082E01F947F0D8F3F69F18093FB04809180
:10148000C0048093C0048091C00480688093C0042D
:101490008091C00480618093C00480E29AE28093CE
:1014A000C6049093C7048091C00480628093C004F6
:1014B0008FEF8093C5048091C80481608093C80435
:1014C0001F94E9091FBF0F90DF91CF911F910895DD
:1014D0008FE1CACF8FE1D1CF8093C3040895E4E3B5
:1014E000FAE2808791876287738708951F920F922F
:1014F0000FB60F9211240BB60F920F932F933F93B9
:101500004F935F936F937F938F939F93AF93BF930B
:10151000EF93FF9380E18093A5069091CB0497FF12
:101520001CC080E88093CA041F941C0580E180934E
:10153000A606FF91EF91BF91AF919F918F917F91FF
:101540006F915F914F913F912F910F910F900BBE33
:101550000F900FBE0F901F9018959091CB0492FFA3
:1015600024C084E08093CA048091282A86FFDECFBD
:101570008091CC0481FDDACF1F946C098111D6CF04
:1015800080911A2A90911B2A8130910519F41F9499
:10159000DE08CCCF049751F6E9E2FAE204E00593C5
:1015A000E1E2FAE204E00593C1CF9091CB0491FF10
:1015B00025C082E08093CA048091202A86FFB6CF9E
:1015C0008091CC0481FDB2CF1F946C098111AECF04
:1015D00080911A2A90911B2A8230910559F484E057
:1015E00090E080931A2A90931B2AE0E2FAE202E04C
:1015F00006939CCF039709F099CFCECF9091CB045F
:1016000094FF1DC08093CA041F940E051092C3045A
:101610001092212A96E09093202A83E48093212A35
:101620001092292A9093282A8093292A86ED99E2FC
:101630008093242A9093252A1F94A60877CF80911F
:10164000CB0486FF04C080E48093CA046FCF8091EE
:10165000CB0485FF6BCF80E2F7CF1F920F920FB6BE
:101660000F9211240BB60F920F931F932F933F935A
:101670004F935F936F937F938F939F93AF93BF939A
:10168000CF93DF93EF93FF9380E28093A506809141
:10169000CC0481FF18C082E08093CC048091C50403
:1016A0008091202A85FF9FC0E0E2FAE200E20693E3
:1016B00080911A2A90911B2A049719F51F94EF081C
:1016C0001F94A60804C01F946C09882321F380E2AC
:1016D0008093A606FF91EF91DF91CF91BF91AF91DB
:1016E0009F918F917F916F915F914F913F912F913A
:1016F0001F910F910F900BBE0F900FBE0F901F9078
:1017000018950091222A1091232A80913E2A9091C7
:101710003F2AC091162AD091172A98012C0F3D1FFD
:101720008217930718F48C010C1B1D0B80913C2A27
:1017300090913D2AA80166ED79E28C0F9D1F1F94C0
:10174000B10DC00FD11FC093162AD093172A0034B1
:10175000110569F48091182A9091192A8C0F9D1F08
:1017600020913A2A30913B2A8217930798F0C09330
:101770003E2AD0933F2AE091422AF091432A3097A3
:1017800031F01995811103C01F94CD08A0CF1F948B
:10179000DE089DCF80913E2A90913F2AC817D90735
:1017A000D9F4E091422AF091432A309769F31995D0
:1017B000882351F38091182A9091192A2091162A92
:1017C0003091172A820F931F8093182A9093192A19
:1017D0001092162A1092172AE0E2FAE202E006932B
:1017E00000E2069374CFE8E2FAE200E206931F9467
:1017F000F7086DCF009709F47CC060E1803C91054B
:1018000029F0811524E0920729F464E090E080E05B
:101810001D94420662E0803821E09207B9F361E04E
:10182000811521E0920791F361E0803823E092076F
:1018300029F0811522E0920721F462E081E090E036
:10184000E7CF61E0811528E0920709F448C061E024
:10185000811529E0920749F161E081152AE092079C
:1018600009F444C061E081152BE0920759F162E070
:10187000803428E0920799F164E0803928E09207EB
:1018800071F168E0803C28E0920749F168E0803C13
:1018900029E0920751F060E1803A28E09207F9F0E0
:1018A000803A29E0920721F460E184E090E0B0CF33
:1018B00060E1803A2AE09207C9F0803A2BE0920773
:1018C00021F460E186E090E0A3CF60E2803B28E075
:1018D000920729F0803824E0920721F460E483E045
:1018E00090E096CF803A944021F460E485E090E067
:1018F0008FCF08958F929F92AF92BF92CF92DF9237
:10190000EF92FF920F931F93CF93DF93EC016A0145
:101910007B01480159018C81B901A80182FF59C09E
:1019200033E076956795579547953A95D1F7D50168
:10193000C801E6E1B695A79597958795EA95D1F701
:101940004C155D056E057F0508F4ACC0C816D906B8
:10195000EA06FB0608F4A6C08C8182FD04C0CC0C0C
:10196000DD1CEE1CFF1CC501B401A70196011F94EC
:101970008F0D19EF8FEF90E0A0E0B0E02817390746
:101980004A075B07B8F1880F991FAA1FBB1F1D3FAD
:101990000CF481601F5F173089F783E0810FA70186
:1019A000960104C0220F331F441F551F8A95D2F79A
:1019B000CA01B9019695879577956795680D791D48
:1019C0008A1D9B1D1F948F0D21503109410951091A
:1019D0003FC094E076956795579547959A95D1F7CE
:1019E000D901C80127E1B695A795979587952A95BE
:1019F000D1F7A6CF17FFD1CF812F012E000C990B65
:101A0000B701A601B3E0440F551F661F771FBA95B3
:101A1000D1F7841A950AA60AB70A1E3F74F52DEF6E
:101A20003FEF281B390B04C0880C991CAA1CBB1C57
:101A30002A95D2F7C701B601969587957795679550
:101A4000680D791D8A1D9B1DA70196011F948F0D9E
:101A5000832F8F701295107F182B1F832E8381E0A8
:101A6000DF91CF911F910F91FF90EF90DF90CF907A
:101A7000BF90AF909F908F9008950396A701960115
:101A800004C0220F331F441F551F8A95D2F7CA0185
:101A9000B9019695879577956795680D791D8A1D8B
:101AA0009B1DD4CF80E0DCCF0F931F93CF93DF93A8
:101AB000EC018B011F94FA0B8D818F738D83F801DC
:101AC00084819681892B9085911198E0892B8D8353
:101AD000F801408151816281738100E016E32EE6B6
:101AE00031E0CE011F947A0C9C8198609C839C818C
:101AF00090619C83DF91CF911F910F910895409148
:101B0000CA01E62FF72F8093CA0184914093CA013E
:101B100008951BBEFC0128ED24BF60830895A1E257
:101B20001A2EAA1BBB1BFD010DC0AA1FBB1FEE1F57
:101B3000FF1FA217B307E407F50720F0A21BB30BA2
:101B4000E40BF50B661F771F881F991F1A9469F71E
:101B500060957095809590959B01AC01BD01CF017A
:101B60000895FB01DC0102C001900D9241505040EC
:101B7000D8F708950F931F93CF93DF93182F092F52
:101B8000EB018B8181FD09C01FEF0FEF812F902F9B
:101B9000DF91CF911F910F91089582FF14C02E8184
:101BA0003F818C819D81281739073CF4E881F981B8
:101BB000CF0101968883998310838E819F8101963E
:101BC0008E839F83E3CFE885F985812F1995892B33
:101BD000A1F3DACF0F931F93CF93DF93E091462ABF
:101BE000F091472A2381EC0110E000E021FD08C0BC
:101BF0000FEF1FEF14C01995892B11F00FEF1FEF96
:101C000089916091462A7091472ADB011896ED91DF
:101C1000FC918111F0CF8AE01995892B49F7C80111
:0E1C2000DF91CF911F910F910895F894FFCF9F
:101C2E0000C20100030000000000000002000000DE
:101C3E00005F01000000000009021200010100C057
:101C4E00320904000000FF00000012010002000033
:101C5E000040EB03DB2F0500010200010403090421
:101C6E000003000000000000000000000000000063
:101C7E000000000000000000000000000000000056
:101C8E000000444655204154584D454741333834A1
:101C9E0043330041544D454C0005000042493A0083
:101CAE000D0A426F6F746C6F616465720D0A00539A
:101CBE006F66742072657365742C20626F6F746921
:101CCE006E6720617070004953502050696E206E0F
:101CDE006F742073657400466C617368206E6F7448
:101CEE0020656D7074792C20626F6F74696E672039
:101CFE0061707000466C61736820656D7074792C2C
:101D0E0020626F6F7420696E746F204446550049CF
:101D1E0053502050696E207365742C20626F6F745F
:101D2E0020696E746F2044465500444655207275E6
:101D3E006E6E696E67004C00303132333435363793
:101D4E0038396162636465666A2162214A214A21DB
:101D5E005A2152214A214A214A214A214A214A2105
:101D6E004A214A214A214A214A210000000000004E
:101D7E0000000400000094060000030000008E0620
:101D8E0000000010000088068306000006007D0695
:021D9E007706C6
:040000036000000099
:00000001FF
